:020000040800F2
:10000000000002203D5100088D4C00088F4C000874
:10001000914C0008934C0008954C0008000000002B
:10002000000000000000000000000000974C0008E5
:10003000994C0008000000009B4C00089D4C0008F3
:100040008D5100088D5100088D5100088D51000818
:100050008D5100088D5100088D5100088D51000808
:100060008D5100088D5100088D5100088D510008F8
:100070008D5100088D5100088D5100088D510008E8
:100080008D5100088D5100088D5100088D510008D8
:100090008D5100088D5100088D5100088D510008C8
:1000A0008D5100088D5100088D5100088D510008B8
:1000B0008D5100088D5100088D5100088D510008A8
:1000C0008D5100088D5100088D5100088D51000898
:1000D0008D5100088D5100088D5100088D51000888
:1000E0008D5100088D5100088D510008A54C000865
:1000F000B54C00088D5100088D5100088D51000845
:100100008D5100088D5100088D5100088D51000857
:100110008D5100088D510008C54C0008D54C0008D1
:100120008D5100088D5100088D5100088D51000837
:100130008D51000800000000000000008D510008F3
:100140008D5100088D5100088D5100088D51000817
:100150008D5100088D5100088D5100088D51000807
:100160008D5100088D5100088D5100088D510008F7
:100170008D5100088D5100088D51000800000000CD
:10018000000000008D510008000000000000000089
:100190008D51000800000000000000008D51000893
:1001A0000000000000000000000000008D51000869
:1001B0008D5100088D5100088D5100088D510008A7
:0401C0008D51000855
:1001C80081F0004102E000BF83F0004330B54FEA00
:1001D80041044FEA430594EA050F08BF90EA020F6D
:1001E8001FBF54EA000C55EA020C7FEA645C7FEA00
:1001F800655C00F0E2804FEA5454D4EB5555B8BF23
:100208006D420CDD2C4480EA020281EA030382EA93
:10021800000083EA010180EA020281EA0303362D25
:1002280088BF30BD11F0004F4FEA01314FF4801CF8
:100238004CEA113102D0404261EB410113F0004F0A
:100248004FEA03334CEA133302D0524263EB4303C1
:1002580094EA050F00F0A780A4F10104D5F1200E5F
:100268000DDB02FA0EFC22FA05F2801841F10001BA
:1002780003FA0EF2801843FA05F359410EE0A5F18E
:1002880020050EF1200E012A03FA0EFC28BF4CF0BF
:10029800020C43FA05F3C01851EBE37101F0004575
:1002A80007D54FF0000EDCF1000C7EEB00006EEB82
:1002B8000101B1F5801F1BD3B1F5001F0CD349080C
:1002C8005FEA30004FEA3C0C04F101044FEA445263
:1002D80012F5800F80F09A80BCF1004F08BF5FEAEA
:1002E800500C50F1000041EB045141EA050130BDCA
:1002F8005FEA4C0C404141EB0101013C28BFB1F5DC
:10030800801FE9D291F0000F04BF01460020B1FA26
:1003180081F308BF2033A3F10B03B3F120020CDAF9
:100328000C3208DD02F1140CC2F10C0201FA0CF0D7
:1003380021FA02F10CE002F11402D8BFC2F1200C3C
:1003480001FA02F120FA0CFCDCBF41EA0C019040F2
:10035800E41AA2BF01EB0451294330BD6FEA04043B
:100368001F3C1CDA0C340EDC04F11404C4F1200226
:1003780020FA04F001FA02F340EA030021FA04F338
:1003880045EA030130BDC4F10C04C4F1200220FA8F
:1003980002F001FA04F340EA0300294630BD21FACD
:1003A80004F0294630BD94F0000F83F4801306BF93
:1003B80081F480110134013D4EE77FEA645C18BF87
:1003C8007FEA655C29D094EA050F08BF90EA020F1E
:1003D80005D054EA000C04BF1946104630BD91EA16
:1003E800030F1EBF0021002030BD5FEA545C05D119
:1003F8004000494128BF41F0004130BD14F5800458
:100408003CBF01F5801130BD01F0004545F0FE41CB
:1004180041F470014FF0000030BD7FEA645C1ABF00
:10042800194610467FEA655C1CBF0B46024650EA37
:10043800013406BF52EA033591EA030F41F4002163
:1004480030BD00BF90F0000F04BF0021704730B5E9
:100458004FF4806404F132044FF000054FF00001BE
:1004680050E700BF90F0000F04BF0021704730B57F
:100478004FF4806404F1320410F0004548BF404254
:100488004FF000013EE700BF42004FEAE2014FEAA9
:1004980031014FEA02701FBF12F07F4393F07F4F84
:1004A80081F06051704732F07F4208BF704793F087
:1004B8007F4F04BF41F40021704730B54FF460749A
:1004C80001F0004521F000411CE700BF50EA01029D
:1004D80008BF704730B54FF000050AE050EA010246
:1004E80008BF704730B511F0004502D5404261EBB6
:1004F80041014FF4806404F132045FEA915C3FF4F7
:10050800D8AE4FF003025FEADC0C18BF03325FEA93
:10051800DC0C18BF033202EBDC02C2F1200300FA44
:1005280003FC20FA02F001FA03FE40EA0E0021FA69
:1005380002F11444BDE600BF70B54FF0FF0C4CF457
:10054800E06C1CEA11541DBF1CEA135594EA0C0F09
:1005580095EA0C0F00F0DEF82C4481EA030621EA44
:100568004C5123EA4C5350EA013518BF52EA03357F
:1005780041F4801143F4801338D0A0FB02CE4FF031
:100588000005E1FB02E506F00042E0FB03E54FF061
:100598000006E1FB03569CF0000F18BF4EF0010E59
:1005A800A4F1FF04B6F5007F64F5407404D25FEA55
:1005B8004E0E6D4146EB060642EAC62141EA555108
:1005C8004FEAC52040EA5E504FEACE2EB4F1FD0C4A
:1005D80088BFBCF5E06F1ED8BEF1004F08BF5FEAC8
:1005E800500E50F1000041EB045170BD06F000467A
:1005F80046EA010140EA020081EA0301B4EB5C0427
:10060800C2BFD4EB0C0541EA045170BD41F480111E
:100618004FF0000E013C00F3AB8014F1360FDEBF43
:10062800002001F0004170BDC4F10004203C35DA1F
:100638000C341BDC04F11404C4F1200500FA05F3A2
:1006480020FA04F001FA05F240EA020001F0004243
:1006580021F0004110EBD37021FA04F642EB0601B9
:100668005EEA430E08BF20EAD37070BDC4F10C04E3
:10067800C4F1200500FA04F320FA05F001FA04F2A7
:1006880040EA020001F0004110EBD37041F1000193
:100698005EEA430E08BF20EAD37070BDC4F120059E
:1006A80000FA05F24EEA020E20FA04F301FA05F206
:1006B80043EA020321FA04F001F0004121FA04F2AE
:1006C80020EA020000EBD3705EEA430E08BF20EA7E
:1006D800D37070BD94F0000F0FD101F000464000B8
:1006E80041EB010111F4801F08BF013CF7D041EA3A
:1006F800060195F0000F18BF704703F0004652003E
:1007080043EB030313F4801F08BF013DF7D043EA0E
:100718000603704794EA0C0F0CEA135518BF95EAC4
:100728000C0F0CD050EA410618BF52EA4306D1D14B
:1007380081EA030101F000414FF0000070BD50EA6A
:10074800410606BF1046194652EA430619D094EAF4
:100758000C0F02D150EA013613D195EA0C0F05D1DE
:1007680052EA03361CBF104619460AD181EA030132
:1007780001F0004141F0FE4141F470014FF00000EA
:1007880070BD41F0FE4141F4780170BD70B54FF085
:10079800FF0C4CF4E06C1CEA11541DBF1CEA135505
:1007A80094EA0C0F95EA0C0F00F0A7F8A4EB0504E7
:1007B80081EA030E52EA03354FEA013100F08880DE
:1007C8004FEA03334FF0805545EA131343EA1263A7
:1007D8004FEA022245EA111545EA10654FEA00265C
:1007E8000EF000419D4208BF964244F1FD0404F515
:1007F800407402D25B084FEA3202B61A65EB030571
:100808005B084FEA32024FF480104FF4002CB6EB2D
:10081800020E75EB030E22BFB61A754640EA0C00AD
:100828005B084FEA3202B6EB020E75EB030E22BFED
:10083800B61A754640EA5C005B084FEA3202B6EB2E
:10084800020E75EB030E22BFB61A754640EA9C00ED
:100858005B084FEA3202B6EB020E75EB030E22BFBD
:10086800B61A754640EADC0055EA060E18D04FEA7B
:10087800051545EA16754FEA06164FEAC30343EA1B
:1008880052734FEAC2025FEA1C1CC0D111F4801FE8
:100898000BD141EA00014FF000004FF0004CB6E7E1
:1008A80011F4801F04BF01430020B4F1FD0C88BF80
:1008B800BCF5E06F3FF6AFAEB5EB030C04BFB6EB8B
:1008C800020C5FEA500C50F1000041EB045170BD7E
:1008D8000EF0004E4EEA113114EB5C04C2BFD4EBAB
:1008E8000C0541EA045170BD41F480114FF0000E2F
:1008F800013C90E645EA060E8DE60CEA135594EAAB
:100908000C0F08BF95EA0C0F3FF43BAF94EA0C0FAD
:100918000AD150EA01347FF434AF95EA0C0F7FF422
:1009280025AF104619462CE795EA0C0F06D152EA76
:1009380003353FF4FDAE1046194622E750EA41065A
:1009480018BF52EA43067FF4C5AE50EA41047FF46B
:100958000DAF52EA43057FF4EBAE12E74FF0FF3CD0
:1009680006E000BF4FF0010C02E000BF4FF0010CA1
:100978004DF804CD4FEA410C7FEA6C5C4FEA430C1A
:1009880018BF7FEA6C5C1BD001B050EA410C0CBF69
:1009980052EA430C91EA030F02BF90EA020F0020CB
:1009A800704710F1000F91EA030F58BF994208BF32
:1009B80090422CBFD8176FEAE37040F001007047EF
:1009C8004FEA410C7FEA6C5C02D150EA013C07D146
:1009D8004FEA430C7FEA6C5CD6D152EA033CD3D091
:1009E8005DF8040B704700BF8446104662468C468B
:1009F8001946634600E000BF01B5FFF7B7FF0028BE
:100A080048BF10F1000F01BD4DF808EDFFF7F4FFE6
:100A18000CBF012000205DF808FB00BF4DF808ED71
:100A2800FFF7EAFF34BF012000205DF808FB00BF94
:100A38004DF808EDFFF7E0FF94BF012000205DF8B6
:100A480008FB00BF4DF808EDFFF7CEFF94BF01206B
:100A580000205DF808FB00BF4DF808EDFFF7C4FF64
:100A680034BF012000205DF808FB00BF4FEA410CAD
:100A78007FEA6C5C02D150EA013C0AD14FEA430C90
:100A88007FEA6C5C02D152EA033C02D14FF00000CD
:100A980070474FF0010070474FEA4102B2F1E0435E
:100AA80024BFB3F5001CDCF1FE5C0DD901F0004C4D
:100AB8004FEAC0024CEA5070B2F1004F40EB83009D
:100AC80008BF20F00100704711F0804F21D113F1C9
:100AD8003872BCBF01F00040704741F480114FEA02
:100AE8005252C2F11802C2F1200C10FA0CF320FA8B
:100AF80002F018BF40F001004FEAC1234FEAD323A8
:100B080003FA0CFC40EA0C0023FA02F34FEA430311
:100B1800CCE77FEA625307D150EA01331EBF4FF09A
:100B2800FE4040F44000704701F0004040F0FE40B5
:100B380040F40000704700BF53B94AB9002908BF04
:100B480000281CBF4FF0FF314FF0FF3000F00CB809
:100B5800ADF1080C6DE904CE04F072FDDDF804E097
:100B6800DDE9022304B07047704700BF10B5054C9B
:100B7800237833B9044B13B10448AFF30080012341
:100B8800237010BDC8000020000000004059000874
:100B980008B5034B1BB103490348AFF3008008BDF8
:100BA80000000000CC0000204059000884B000B5C7
:100BB80085B00DF11C0C8CE80E009DF83430A0B106
:100BC80084461F2B05D9012005B05DF804EB04B05D
:100BD800704703760AAB93E807008DE8070007AB78
:100BE8000ECB604600F046FBEEE70120ECE72DE96E
:100BF800F04184B004460F46984603699847002C94
:100C080000F098800646012527E023699847801B55
:100C1800092800F29180204600F06CFB63690220ED
:100C280098474022039265F351320392227E521B69
:100C380018BF01229DF80C3062F341038DF80C3087
:100C48009DF80D3062F304138DF80D3001220092E7
:100C580003AB0021204600F087FC237EAB4216D36D
:100C68000023039302930122009202AB29462046F7
:100C780000F068FC0028C8D1029BC3F34433AB42A0
:100C8800C3D10135EDB2236998470646E5E740230D
:100C980003939DF80D3043F010038DF80D30DBB24F
:100CA80068F383038DF80D30DBB267F301038DF829
:100CB8000D30032F27D063680021032098470122B5
:100CC800009203AB0021204600F04EFC9DF80C304A
:100CD80043F002038DF80C30637E2BB99DF80D307C
:100CE80023F010038DF80D300122009203AB217E12
:100CF800204600F039FC9DF82830012B08D0002050
:100D080004B0BDE8F0816368012103209847D6E765
:100D1800002503959DF80D3043F080038DF80D30C4
:100D28000123009303AB05222946204600F01CFC52
:100D38002846E5E70120E3E70220E1E710B370B5B4
:100D480084B00D461446064603B18AB900230393BE
:100D58009DF80E3065F301038DF80E300A230093D9
:100D680003AB02222146304600F0FEFB04B070BD02
:100D78000A23009303AB0222214600F0E3FB00287C
:100D8800E6D0F3E70120704700B585B00023039350
:100D9800002800F09280844607E09DF80C2042F07D
:100DA80001028DF80C200133DBB20D2B7BD80D2B03
:100DB800F9D801A252F823F0A30D0008F90D000894
:100DC800070E0008150E0008230E0008310E000853
:100DD8003F0E00084D0E00085B0E0008690E000863
:100DE800770E0008850E0008930E0008A10E000873
:100DF8009DF80C2042F002028DF80C20D3E79DF8F4
:100E08000C2042F004028DF80C20CCE79DF80C2051
:100E180042F008028DF80C20C5E79DF80C2042F03E
:100E280010028DF80C20BEE79DF80C2042F020023D
:100E38008DF80C20B7E79DF80C2042F040028DF8A1
:100E48000C20B0E79DF80C2042F080028DF80C20B1
:100E5800A9E79DF80D2042F001028DF80D20A2E7C8
:100E68009DF80D2042F002028DF80D209BE79DF8B9
:100E78000D2042F004028DF80D2094E79DF80D2016
:100E880042F008028DF80D208DE79DF80D2042F004
:100E980010028DF80D2086E79DF80D2042F0200203
:100EA8008DF80D207FE71423009303AB1C226046C6
:100EB80000F05AFB05B05DF804FB0120FAE700BF1B
:100EC80010B584B00024039478B384469DF80D00CF
:100ED80062F343008DF80D00C2B242F080028DF833
:100EE8000D20D2B263F300028DF80D20C3F3C000C9
:100EF8009DF80C2060F3C7128DF80C20C3F3400056
:100F0800D2B260F345128DF80C20C3F38003D2B23D
:100F180063F386128DF80C201423009303AB0D2283
:100F2800604600F021FB04B010BD0120FBE710B5BE
:100F380084B000230393A0B1144619B9137001209B
:100F480004B010BD0A23009303AB0D2200F0FAFA97
:100F58000028F5D19DF80D30DB43C3F3C01323708F
:100F6800EEE70120ECE730B585B0002403940028B3
:100F78006ED01D46044689B1802A55D014D9B2F5E1
:100F8800006F59D040D8B2F5007F57D0B2F5806FC6
:100F980056D0B2F5807F55D129221FE000232B803F
:100FA800089A1370012029E0202A29D8022A3DD363
:100FB800023A1E2A11D8DFE802F03B102F10101059
:100FC80031101010101010103310101010101010D5
:100FD8001010101010101010350021221E2300933D
:100FE80003AB204600F0AEFA40B9BDF80C302B80B8
:100FF8009DF80E30C3F30003089A137005B030BD96
:10100800402A17D12722E9E7B2F5805F1CD0B2F554
:10101800005F1BD12E22E1E72322DFE72422DDE750
:101028002522DBE72622D9E72822D7E72122D5E7A0
:101038002222D3E72122D1E72C22CFE72A22CDE7AB
:101048002B22CBE72122C9E72D22C7E72122C5E7BA
:101058000120D3E7F0B585B00C4600210391029139
:1010680048B316461D46074624B931802960012039
:1010780005B0F0BD0A23009303AB4122214600F0DE
:1010880061FA0028F4D10A23009302AB40222146DA
:10109800384600F057FABDF80C2032800028E7D116
:1010A800029BC3F311029DF80E3003F0030343EAD9
:1010B80082032B60DCE70120DAE730B585B0002435
:1010C8000394002847D01D460446202A1FD8022A28
:1010D80029D3023A1E2A11D8DFE802F027101D1082
:1010E80010101F10101010101010211010101010D8
:1010F8001010101010101010101023003422C1B955
:1011080000232B80089A1370012005B030BD402AB7
:101118000DD13A22F3E73622F1E73722EFE73822FA
:10112800EDE73922EBE73422E9E73522E7E7342215
:10113800E5E70A23009303AB204600F003FA0028F2
:10114800E3D1BDF80C302B809DF80E30C3F30003BB
:10115800089A1370D9E70120D7E770B584B0002446
:101168000394E0B116461D4621B900232B600120E7
:1011780004B070BD0A23009303AB00F0E3F9002824
:10118800F6D12F2E06D0302EF2D1039BC3F31103D4
:101198002B60EDE7039BC3F311032B60E8E7012005
:1011A800E6E710B330B585B00C46054602B199B9EB
:1011B80000230393002303939DF80E3043F00203AA
:1011C8008DF80E300A23009303AB0F2221462846E0
:1011D80000F0CAF905B030BD0A23009303AB022220
:1011E80000F0B0F90028E5D0F4E7012070470000CE
:1011F80070B5C9B220F03F0481F0E00104204FF03F
:10120800000CB2266346802509E04FEA5C0C4CEAE4
:10121800C67C76085B0843EAC5736D087046421EB3
:101228005FFA82FE48B104EA030201EA05000243BC
:10123800EBD084EA0C047140E7E71E2214E0C2F107
:10124800200EA2F1200C24FA02F301FA0EFE43EA62
:101258000E0321FA0CFC43EA0C0303F03F0343405E
:101268000348C05C063A52B2002AE8DC70BD00BFF1
:101278000000002084B038B50DF1140C8CE80E0085
:1012880050B3044651B3154652B3079B53B3089B5A
:1012980053B3099B53B30A9B53B384460DF1140E01
:1012A800BEE80F00ACE80F009EE803008CE80300DE
:1012B80001210020A8476368012108469847636810
:1012C80000210320984763680021042098470020E4
:1012D800BDE8384004B070470120F9E70120F7E77E
:1012E8000120F5E70120F3E70120F1E70120EFE70E
:1012F8000120EDE738B580B105464368002108466E
:101308009847AB680A2205210548984704466B6848
:10131800012100209847204638BD0124FBE700BF83
:101328005859000803790B70C3784B7083788B7019
:101338004378CB7003780B71704710B582B00446C0
:101348009DF810C09DF8040061F3C7108DF80400E3
:10135800C1B262F386118DF80410CAB263F3450274
:101368008DF804200CF03F029DF8033003F00303CE
:1013780043EA82038DF80330CCF3801C9DF80430D7
:1013880023F0010343EA0C038DF80430009B059A0F
:1013980062F397130093DDE90001FFF729FF9DF839
:1013A800003060F305038DF8003021466846FFF7EA
:1013B800B9FF002002B010BDF8B504460D46164628
:1013C8001F4643680121084698476368002108467C
:1013D8009847E3683A463146284698470546636881
:1013E800002101209847636801210020984728467A
:1013F800F8BD00002DE9F04383B007460C4690463F
:101408001D469DF82860C37863F00303C370037911
:1014180043F001030371DBB243F03E030371036839
:10142800244A62F3971303604B6800210120984710
:101438003B79C3F34403434538D0236802209847D7
:1014480070B923699847401BB042F6D363680121FD
:10145800084698474FF00209484603B0BDE8F083B4
:101468006368002108469847A3680A220521684650
:1014780098478146636801210020984763680121E5
:1014880008469847B9F1000FE6D139466846FFF794
:1014980049FF97F8009009F03F09D7E90001FFF7E5
:1014A800A7FE8145C4D04FF00309D5E74FF00009E6
:1014B800D2E700BFFFFF03002DE9F04186B00C9F83
:1014C800002839D00D4614460646002F36D000298C
:1014D80014BF012200222DD039680DF108080191AE
:1014E8000093234601214046FFF727FF0A230522E0
:1014F80041463046FFF760FF0346B8B9336998475D
:1015080003469DF8342000922246314604A8FFF78E
:1015180071FF034650B92DB1049AC2F3911239688C
:101528008A420DD1049AC2F391123A60184606B065
:10153800BDE8F0810021D0E70123F7E70123F5E7B3
:101548000423F3E709B90120704700B583B08C463E
:101558009DF8101001910093134662460021FFF791
:10156800ABFF03B05DF804FB10B582B09DF81040E6
:101578000194009313460A460121FFF79DFF02B02C
:1015880010BD0000F8B507460E4615460024164B58
:101598005C632146154803F0BFF923460DE0144A61
:1015A80014681A1D04EB420241F6583191801C441C
:1015B800002284F84C200133DBB21B2BEFD9002327
:1015C80009E00B4A126803F134014FF6607022F803
:1015D80011000133DBB2092BF3D9054B1F60054B12
:1015E8001E60054B1D60F8BD00180040380400203F
:1015F800F0000020EC000020E800002008B5384B7F
:101608001868B0F8462041F268039A422BD890F83F
:10161800A530002B63D000231B2B26D81A1D00EB06
:101628004202918841F20402914220D80133DBB290
:10163800F2E7C218002182F84C100133DBB21B2BF1
:1016480045D81A1D00EB4202918841F26802914286
:10165800EFD9C218022182F84C1090F89820013274
:1016680080F89820E9E70023E9E7002300E0012358
:101678001BB9B0F84A30962B31D9002380F898303E
:101688000AE0844400228CF84C2003E0C2180021B0
:1016980082F84C100133DBB21B2B18D89C461A1D5C
:1016A80000EB4202928841F203018A42EED9B0F877
:1016B8004410521A12B20A2AE3DDC218022182F833
:1016C8004C1090F89820013280F89820E2E790F8C2
:1016D8009810003918BF01214C3000F021FF08BDD7
:1016E800F000002038B51B4C20681C210C3003F09A
:1016F8009BFC054620681C210C3003F0AAFC2368DB
:10170800A3F84450A3F84600401BA3F84A001C2144
:1017180003F10C0003F0B2FC2368A3F848000A2187
:1017280003F1680003F0BCFC054620680A21683014
:1017380003F0CCFC2468A4F87C50A4F87E00401B7D
:10174800A4F880000A2104F1680003F0D5FCA4F88D
:10175800820038BDF0000020454B1B681968454AD7
:10176800914209D9444B1B68012083F8700000237B
:101778001B2B7BD810B457E03F4A1268002182F82F
:10178800701019683D4B994203D8012082F8710006
:10179800EDE7002082F87100E9E7374A4FF0010CC5
:1017A800146804F803C012681A444FF0000C82F859
:1017B8001CC009E0304A4FF0000C146804F803C05C
:1017C80012681A4482F81CC0294A126801F1040CF4
:1017D80002EB4C02928840F6B73C624518D8B2F545
:1017E8002F6F0BD20130C0B2234A12680A4400217D
:1017F80082F83810012182F8541011E01E4A12684C
:101808000A44012182F83810002182F8541007E0B8
:10181800194A12680A44002182F8381082F85410D4
:101828000133DBB21B2B1ED8114A1268194603F18B
:10183800040C02EB4C02928841F2540C6245B9D96F
:1018480041F2680C6245A8D90130C0B20A4A4FF08B
:10185800000C146804F803C012681A444FF0010C15
:1018680082F81CC0B0E75DF8044B7047704700BFB2
:10187800F000002060CB0100EC000020A332010042
:10188800002318461B2B61D810B440E0304C246864
:101898001C444FF0010C84F874C04FF0000C84F81D
:1018A8007EC008E02A4C246804EB030C00248CF862
:1018B80074408CF87E4002F1340431F91410B1F50B
:1018C800FA7F18DA11F1640F0BDA0130C0B220493F
:1018D80009680A44002182F88810012182F89210D0
:1018E80011E01B4909680A44012182F88810002187
:1018F80082F8921007E0164909680A44002182F824
:10190800881082F892100133DBB21B2B1BD8114AC6
:1019180011681A4603F1340431F914C0BCF57A6F22
:10192800C0DD41F27C54A445B0DD0130C0B2084CA2
:1019380024681C444FF0000C84F874C04FF0010C6C
:1019480084F87EC0B7E75DF8044B7047704700BF66
:10195800EC000020F0000020224B1968D1F8882004
:10196800D1F88C3040F2E930824273F1000015DB87
:10197800012081F8A500002081F8A600012A73F152
:1019880000011DDB41F2B5418A4273F1000311DB0E
:10199800154B1B68012083F87200704712F57A7F97
:1019A80073F1FF30EADA002081F8A500012081F800
:1019B800A600E3E70C4B1B68002083F87200704711
:1019C8000A498A424FF0FF32934105DA064B1B68F9
:1019D800012083F873007047034B1B68002083F8CD
:1019E80073007047F0000020EC00002098D6FFFF3D
:1019F80010B5FFF7B1FE0446FFF7AEFF0444E4B2AA
:101A0800FFF73EFF2044C0B2B0FA80F0400910BD95
:101A1800642804D8132806D9054B58637047044B2B
:101A280064225A637047024B14225A63704700BFFE
:101A38000018004008B5144B1B68B3F98020B2F5B4
:101A4800FA7F13DDB3F97E3040F6B732934210DDEA
:101A580041F29312934210DD41F2873293420EDD38
:101A680041F27B5293420CDC502003E0B3F9823000
:101A7800EAE70020FFF7CCFF08BD1E20FAE73C206C
:101A8800F8E76420F6E700BFF00000200122044BCD
:101A98001A70044B1B680021596099605A7070478E
:101AA800E4000020E800002038B5012405E0012109
:101AB800204600F02BFC0134E4B2022CF7D9234C69
:101AC800256800F00BFD286020680C3000F0E6FC6B
:101AD8002068683000F0B2FC00F01CFD2368C217D3
:101AE800C3F88800C3F88C20FFF782FF184C2070D9
:101AF800FFF7F8FD237813B9164B04221A70154B1B
:101B08001B78052B14D8DFE803F018030D13131CFA
:101B18000120FFF7BBFF0E4B1B784BB10D4B00228A
:101B28001A7005E00120FFF7B1FF0A4B00221A7076
:101B3800FFF764FDFFF77EFF38BD0120FFF7A6FF22
:101B4800F6E70020FFF7A2FFF2E700BFF000002051
:101B5800F400002040000020014B1868704700BFC7
:101B6800F000002070B504460E4601F059F805460D
:101B7800204601F08AF930B901F052F8431BB3420C
:101B8800F6D9032000E0002070BD000008B50E481B
:101B98000E4B03602423436000238360C3604FF42B
:101BA800803202614FF4801242610376012242764C
:101BB8008376C3760377437701F04CF800B908BD04
:101BC80000F068FDFBE700BF24010020006400402E
:101BD80008B50D480D4B0360242343600023836040
:101BE800C3604FF4803202614FF480124261037681
:101BF80043768376C3760377437701F02BF800B9F1
:101C080008BD00F047FDFBE7FC000020006800402D
:101C180000B58BB0002305930693079308930993A7
:101C28000368374A934205D0364A93422FD00BB007
:101C38005DF804FB344A136801331360012B19D093
:101C480000230193314B1A6B42F001021A631B6B9C
:101C580003F001030193019B4FF4C0530593022342
:101C68000693032308930923099305A9284801F03B
:101C7800A1F9DCE700230093244B1A6C42F00072B0
:101C88001A641B6C03F000730093009BD8E70023D1
:101C980002931E4B1A6C42F080621A641B6C03F0AC
:101CA80080630293029B184A136801331360012B67
:101CB80019D000230493154B1A6B42F002021A63E1
:101CC8001B6B03F002030493049B4FF440530593EA
:101CD80002230693032308930923099305A90D48B2
:101CE80001F068F9A3E700230393084B1A6C42F04C
:101CF80000721A641B6C03F000730393039BD8E70C
:101D08000064004000680040F800002000380240ED
:101D1800000002400004024070B582B004460E463E
:101D280015460121FFF71EFF60B901AB324629466F
:101D3800204601F035F88DF803009DF80300C0B285
:101D480002B070BD0320FBE7014B1860704700BF6D
:101D58004C0100207047000000B587B000230193B4
:101D68000293039300906A460248FFF7D5FF07B035
:101D78005DF804FB2401002010B590B0BDF80820E0
:101D880002F47F43082B94BF002301238DF8003011
:101D98008DF80120BDF80A2002F47F43082B94BF78
:101DA800002301238DF802308DF80320BDF80C20A4
:101DB80002F47F43082B94BF002301238DF80430DD
:101DC8008DF80520BDF80E2002F47F43082B94BF40
:101DD800002301238DF806308DF8072069464FF45B
:101DE8008070FFF7B9FFBDF8102002F47F43082B7D
:101DF80094BF002301238DF800308DF80120BDF831
:101E0800122002F47F43082B94BF002301238DF88E
:101E180002308DF80320BDF8142002F47F43082B0C
:101E280094BF002301238DF804308DF80520BDF8F8
:101E3800162002F47F43082B94BF002301238DF85A
:101E480006308DF80720694640F20110FFF784FF3D
:101E5800BDF8182002F47F43082B94BF0023012308
:101E68008DF800308DF80120BDF81A2002F47F4368
:101E7800082B94BF002301238DF802308DF803202E
:101E8800BDF81C2002F47F43082B94BF00230123D4
:101E98008DF804308DF80520BDF81E2002F47F432C
:101EA800082B94BF002301238DF806308DF80720F6
:101EB80069464FF48170FFF74FFFBDF8202002F408
:101EC8007F43082B94BF002301238DF800308DF841
:101ED8000120BDF8222002F47F43082B94BF002381
:101EE80001238DF802308DF80320BDF8242002F478
:101EF8007F43082B94BF002301238DF804308DF80D
:101F08000520BDF8262002F47F43082B94BF002348
:101F180001238DF806308DF80720694640F203103A
:101F2800FFF71AFFBDF8282002F47F43082B94BF5F
:101F3800002301238DF800308DF80120BDF82A20F8
:101F480002F47F43082B94BF002301238DF802304D
:101F58008DF80320BDF82C2002F47F43082B94BF92
:101F6800002301238DF804308DF80520BDF82E20BC
:101F780002F47F43082B94BF002301238DF8063019
:101F88008DF8072069464FF48270FFF7E5FEBDF82B
:101F9800302002F47F43082B94BF002301238DF8DF
:101FA80000308DF80120BDF8322002F47F43082B61
:101FB80094BF002301238DF802308DF80320BDF86B
:101FC800342002F47F43082B94BF002301238DF8AB
:101FD80004308DF80520BDF8362002F47F43082B25
:101FE80094BF002301238DF806308DF80720694639
:101FF80040F20510FFF7B0FEBDF8382002F47F4329
:10200800082B94BF002301238DF800308DF80120A0
:10201800BDF83A2002F47F43082B94BF0023012324
:102028008DF802308DF80320BDF83C2002F47F4380
:10203800082B94BF002301238DF804308DF8052068
:10204800BDF83E2002F47F43082B94BF00230123F0
:102058008DF806308DF8072069464FF48370FFF736
:102068007BFE10B010BD00002DE9F0478AB005AD29
:1020780000240594069407940894099400944A4B04
:102088001A6B42F080021A631A6B02F08002009207
:10209800009A01941A6B42F004021A631A6B02F058
:1020A80004020192019A02941A6B42F001021A6327
:1020B8001A6B02F001020292029A03941A6B42F020
:1020C80002021A631A6B02F002020392039A049442
:1020D8001A6B42F008021A631B6B03F0080304939F
:1020E800049BDFF8CC80224641F67121404601F07E
:1020F80058F8DFF8C090224640F27D11484601F0BA
:1021080050F82A4F22464FF40041384601F049F86A
:10211800DFF8A4A022460421504601F042F841F617
:10212800712305930126069607940894294640468C
:1021380000F040FF40F27D1305930696079408943B
:102148002946484600F036FF022305930694079473
:102158002946484600F02EFF8023059306940794ED
:102168002946404600F026FF4FF4C06305930694C5
:1021780007942946384600F01DFF4FF400430593A5
:102188000696079408942946384600F013FF04235E
:1021980005930696079408942946504600F00AFFCE
:1021A8000AB0BDE8F08700BF0038024000000240D6
:1021B8000008024000040240000C02402DE9F043F0
:1021C80091B0504B504D4FF00208CDF80C8003F100
:1021D8000C0207CA8DE807000ECB2846FEF7E6FC7E
:1021E8000127009700233A4619462846FEF7FFFCC8
:1021F8004FF420430F939DF83D3067F305138DF896
:102208003D30DBB223F0C0038DF83D300A2600963E
:102218000FAB142200212846FFF7A6F900240E94DC
:102228004FF0FF098DF8399000960EAB0B2221462E
:102238002846FFF799F90D948DF8359000960DAB67
:102248000C2221462846FFF78FF90C949DF831306F
:1022580043F040038DF8313000960CAB0322214641
:102268002846FFF781F94FF480330B9300960BABA8
:10227800042221462846FFF777F90A9400960AAB0C
:10228800052221462846FFF76FF90994009609AB05
:10229800062221462846FFF767F90894009608ABFE
:1022A800072221462846FFF75FF90794009607ABF7
:1022B800082221462846FFF757F90694009606ABF0
:1022C800092221462846FFF74FF90594009605ABE9
:1022D800324621462846FFF747F93A46214628461E
:1022E800FEF75FFF2346224641462846FEF726FDB5
:1022F80043F6FF7221462846FEF746FD11B0BDE8B9
:10230800F08300BF60590008AC0100202DE9F043BC
:1023180087B0054689460DF1170229463F48FEF762
:1023280006FE9DF81730002BF5D0B9F1000318BF51
:102338000123002229463948FEF7C2FD0024ADF8E2
:10234800144004948DF80F4005F1FF385FFA88F8BF
:1023580020E01F46324B33F814200DF10F03009391
:1023680005AB29462D48FEF7FEFD0028F2D19DF861
:102378000F30002BEED07B1CDBB2092FE9D9C8EB5C
:10238800C80304EB4306274BBDF8142023F8162096
:102398000134E4B20D2C01D80027DBE76A1E224B7A
:1023A80003EB8203214901EB420229461B48FEF751
:1023B80051FE04460028F1D1012D03D0B9F1000FD8
:1023C80027D128E004AB302229461448FEF7C5FE81
:1023D8000028F7D1164B049A1A80EFE7154B13F82B
:1023E80014200DF10F03009305AB29460B48FEF7A7
:1023F80064FE0028F2D19DF80F30002BEED008EBD8
:10240800880323440C4ABDF8141022F81310013431
:10241800E4B20D2CE2D907B0BDE8F083AC0100208E
:102428005000002074010020540100205C010020AD
:10243800500100204400002060010020F8B5074644
:102448000026354612E0C6EBC60304EB43030A4AEE
:1024580032F8130000F0D4F927F815000135EDB271
:102468000134E4B2042CEED90136F6B2012E01D8BB
:102478000024F7E7F8BD00BF7401002007EE900ABA
:10248800F8EE677A9FED047A67EE877AFCEEE77AD2
:1024980017EE903A98B27047A245B63DF8B5074690
:1024A8000026354601E00136F6B2012E12D8002486
:1024B8000D2CF8D8C6EBC60304EB4303064A32F8E2
:1024C8001300FFF7DBFF27F815000135EDB20134E3
:1024D800E4B2EDE7F8BD00BF7401002000231A46FE
:1024E80005E00A4931F813100A440133DBB2012B25
:1024F800F7D907EE902AF8EE677A9FED057A67EE2E
:10250800877AFCEEE77A17EE900A70475C010020A4
:10251800713DAA3F014BB3F90000704750010020FC
:102528002DE9F04385B00023039311B10646002539
:1025380081E09DF80D3043F040038DF80D300A23FB
:10254800009303AB03225248FFF70EF89CE0C5EB5B
:10255800C50416F814209DF8083062F305138DF8A9
:10256800083006EB44046278DBB262F387138DF817
:102578000830A2789DF8093062F301038DF809301C
:10258800E278DBB262F383038DF809302279DBB29B
:1025980062F305138DF809306279DBB262F38713B1
:1025A8008DF809300135EDB20DF10808384F4FF0BC
:1025B8000A09CDF800904346112229463846FEF70D
:1025C800D3FFA2799DF8083062F301038DF8083033
:1025D800E279DBB262F383038DF80830227ADBB24A
:1025E80062F305138DF80830627ADBB262F3871361
:1025F8008DF80830A27A9DF8093062F301038DF84E
:102608000930E27ADBB262F383038DF80930227B6A
:10261800DBB262F305138DF80930627BDBB262F33B
:1026280087138DF80930CDF80090434610222946CB
:102638003846FEF799FF012D89D99DF80D3023F012
:1026480080038DF80D30DBB243F040038DF80D3078
:1026580003AD0F4C0A2600962B4603220021204684
:10266800FEF782FF9DF80D3043F080038DF80D30A2
:10267800DBB223F040038DF80D3000962B46032281
:1026880000212046FEF770FF05B0BDE8F08300BFCB
:10269800AC01002072B6FEE710B594B007AC342246
:1026A8000021204602F06FFD002302930393049358
:1026B800059306930093234A116C41F080511164ED
:1026C800126C02F080520092009A01931E4B1A6815
:1026D80042F440421A601B6803F440430193019B93
:1026E800012307934FF48033089302230D934FF48B
:1026F80080020E9204220F92B42210921193129328
:102708001393204600F04CFFA8B900F06DFDA0B966
:102718000F23029303230393002304934FF4A0533E
:1027280005934FF480530693052102A800F09AFD03
:1027380028B914B010BDFFF7ADFFFFF7ABFFFFF7E7
:10274800A9FF00BF003802400070004008B500F043
:1027580041FAFFF7A1FFFFF787FCFFF717FA00F030
:10276800C1F802F0C5FA02F0EBFA02F00BFC02F035
:10277800C1FB02F00DFBFFF72BFA00F0D5F8FFF7CD
:102788001DFD194A19491A48FEF7FCFEFFF7E4F93E
:10279800FFF7DAFA0CE0174B19684FF4C87002F02B
:1027A800BDFC98B9144B1968022002F0B7FCA0B917
:1027B800124B1968322002F0B1FC0028EBD000F06F
:1027C8002FFA0E4B1860FFF76FF9E4E700F028FACC
:1027D800084B1860FFF7D0FAE4E700F021FA064B3F
:1027E8001860FFF7B7FAE3E7C8010020E00100200E
:1027F800800200203403002030030020380300202A
:1028080038B507EE900AF8EE677A17EE900AFDF7EA
:102818003BFE2AA3D3E90023FDF78EFEFEF73CF921
:10282800FDF732FE04460D4602460B4625A1D1E9C6
:102838000001FDF7C9FC02460B4620462946FDF774
:10284800A5FF22A3D3E90023FDF776FEFEF724F9BE
:10285800FDF71AFE1DA3D3E90023FDF797FF41EC0E
:10286800100B02F0C5FC51EC100B1AA3D3E900239E
:10287800FDF762FE19A3D3E90023FDF7A7FC024682
:102888000B4600200A49FDF781FFFEF705F907EE20
:10289800900A9FED087A67EE877A9FED077A77EEC0
:1028A800C77AFDEEE77A17EE903A18B238BD00BF46
:1028B8000000F03F0000C8420066D546D8D8D8D8F6
:1028C800D8D8C83F6666666666660A40000000009B
:1028D8000088C34081D91E7E6597303F83DBB5DC15
:1028E800E1796B3F08B50E480E4B03604FF48273D5
:1028F800436000238360C3600361012242614FF497
:10290800007282612022C2610362436283620A23E9
:10291800C36201F051F900B908BDFFF7BBFEFBE740
:10292800940300200030014008B50D480D4B0360AA
:102938004FF48273436000238360C3600361436183
:102948004FF400728261C3610362436283620A23A7
:10295800C36201F031F900B908BDFFF79BFEFBE740
:102968003C030020003800402DE9F0438BB00023E1
:10297800059306930793089309930368394A93428A
:1029880005D0394A934225D00BB0BDE8F083002129
:102998000091364B5A6C42F480525A645A6C02F4D5
:1029A80080520092009A01911A6B42F001021A6358
:1029B8001B6B03F001030193019BE02305930223A2
:1029C8000693032308930523099305A9284800F0D3
:1029D800F1FAD9E700240294244B1A6C42F480429D
:1029E8001A641A6C02F480420292029A03941A6BD7
:1029F80042F004021A631A6B02F004020392039A6B
:102A080004941A6B42F002021A631B6B03F0020370
:102A18000493049B02250595069503270897072329
:102A2800099305AEDFF850903146484600F0C2FAE7
:102A3800042305930695079408974FF00508CDF8E9
:102A480024803146484600F0B5FA4FF48063059378
:102A5800069507940897CDF824803146054800F07C
:102A6800A9FA91E7003001400038004000380240E0
:102A780000000240000402400008024008B5042893
:102A880020D8DFE800F0030B10151A0010210E48BB
:102A980000F080FB003818BF012008BD04210B4856
:102AA80000F078FBF6E70221084800F073FBF1E735
:102AB8000121064800F06EFBECE72021024800F0F7
:102AC80069FBE7E70020E5E7000802400004024050
:102AD80010B50A1E18BF0122042823D8DFE800F029
:102AE800030A10161C00044610210F4800F059FB79
:102AF800204610BD04210D4800F053FB0020F8E7E4
:102B080002210A4800F04DFB0020F2E701210748A6
:102B180000F047FB0020ECE72021034800F041FBD0
:102B28000020E6E70120E4E7000802400004024034
:102B380008B513460A460146054801F0A7FA0346B8
:102B480010B1032802D10223184608BD0123FBE770
:102B58009403002008B513460A460146054801F0CB
:102B68008AF8034610B1032802D10223184608BD8B
:102B78000123FBE79403002008B500F051F808BDD5
:102B880008B500F053F808BD10B504460E4B1A7886
:102B98004FF47A73B3FBF2F30C4A1068B0FBF3F00E
:102BA80000F0F4F968B90F2C01D901200AE00022DD
:102BB80021464FF0FF3000F0D5F9054B1C6000208E
:102BC80000E0012010BD00BF6C0000207400002050
:102BD8007000002008B50B4B1A6842F400721A60A6
:102BE8001A6842F480621A601A6842F480721A60A5
:102BF800032000F0A5F90F20FFF7C6FF00F0D8FA70
:102C0800002008BD003C0240034A1168034B1B78B2
:102C18000B441360704700BFEC0300206C000020D9
:102C2800014B1868704700BFEC03002038B5044614
:102C3800FFF7F6FF0546B4F1FF3F02D0044B1B78BF
:102C48001C44FFF7EDFF401BA042FAD338BD00BF7C
:102C58006C000020002800F0A18038B5044690F8E8
:102C68002030D3B12268136843F001031360FFF7E3
:102C7800D7FF054623685A6812F0010F10D1FFF7F5
:102C8800CFFF401B0A28F5D9636A43F40033636217
:102C9800052384F82030012038BDFEF7B9FFE1E7AD
:102CA8001A6822F002021A60FFF7BAFF0546236885
:102CB8005A6812F0020F0DD0FFF7B2FF401B0A2826
:102CC800F5D9636A43F400336362052384F820303E
:102CD8000120E1E7227E012A3DD01A6822F0800215
:102CE8001A60637E012B3BD02268136823F04003EF
:102CF8001360A37E012B39D02268136823F02003C8
:102D08001360E37E012B37D02268136843F0100369
:102D18001360237F012B35D02268136823F0080342
:102D28001360637F012B33D02268136823F00403F8
:102D38001360A368E268134322691343626913436B
:102D48006268013A21681343CB6100206062012365
:102D580084F82030A0E71A6842F080021A60C0E7C1
:102D68002268136843F040031360C2E722681368BF
:102D780043F020031360C4E72268136823F01003AC
:102D88001360C6E72268136843F008031360C8E7B6
:102D98002268136843F004031360CAE701207047F0
:102DA80030B590F820C00468A4680CF1FF3C5FFAC5
:102DB8008CFCBCF1010F62D814F0E05F59D0C4F369
:102DC800016C012404FA0CF41C608B68002B3DD1C3
:102DD8000D68CB68046843EA45550CF118031B01DC
:102DE800E55003680C690CF1180E03EB0E135C60D8
:102DF8000B7D012B35D0D17993791B0443EA01630C
:102E0800517943EA012314790168234301EB0C113A
:102E1800C1F88C31D17893781B0443EA0163517867
:102E280043EA0123117802680B4302EB0C12C2F843
:102E3800883102680CF1180C4FEA0C1C52F80C305F
:102E480043F0010342F80C3000201DE04C6843EACF
:102E5800C403CC6823430CF11804240105682B51E2
:102E6800BFE7036803EB0E13596841F4807159609A
:102E7800C1E7436A43F400134362012004E0436A54
:102E880043F480234362012030BD90F82030013B99
:102E9800DBB2012B01D9002070470368986810F055
:102EA800806000D001209A6812F0006F00D00130D5
:102EB8009B6813F0805FEFD001307047002807DB74
:102EC80000F01F02400901239340024A42F82030D3
:102ED800704700BF00E100E0002808DB0901C9B223
:102EE80000F1604000F5614080F80013704700F081
:102EF8000F000901C9B2014B1954704714ED00E0E5
:102F080000B500F00700C0F1070CBCF1040F28BFA2
:102F18004FF0040C031D062B0FD9C31E4FF0FF3EC4
:102F28000EFA0CF021EA000199400EFA03FE22EA9B
:102F38000E0241EA02005DF804FB0023EEE7000000
:102F4800074AD36823F4E0631B041B0C000200F457
:102F5800E060034343F0BF6343F40033D36070473A
:102F680000ED00E010B50446054BD868C0F3022018
:102F7800FFF7C6FF01462046FFF7AEFF10BD00BFB2
:102F880000ED00E008B5FFF799FF08BD0138B0F182
:102F9800807F0BD24FF0E0235861054AF02182F878
:102FA80023100020986107221A617047012070479A
:102FB80000ED00E000230F2B00F2E38070B582B033
:102FC80065E085684FEA430E032404FA0EF425EA07
:102FD8000405CC6804FA0EF42C438460446824EA9F
:102FE80002044A68C2F300129A40224342605CE03D
:102FF800DC08083450F8242003F00705AD004FF032
:103008000F0E0EFA05FE22EA0E0E0A69AA4042EADF
:103018000E0240F824205CE0062200E0002202FABA
:103028000EF22A430234574D45F82420564A946834
:103038006FEA0C0224EA0C054E6816F4801F01D0D2
:103048004CEA0405504CA560E46802EA04054E68A1
:1030580016F4001F01D04CEA04054B4CE560646887
:1030680002EA04054E6816F4003F01D04CEA040554
:10307800454C6560246822404D6815F4803F01D0B6
:103088004CEA0402404C226001330F2B77D801220E
:103098009A400C6804EA020C32EA0404F4D14C6841
:1030A80004F00304013C012C8BD94A6802F00302A6
:1030B800032A09D0C4685D000322AA4024EA020456
:1030C8008A68AA402243C2604A6802F00302022AC0
:1030D8008ED004684FEA430E032202FA0EF224EA65
:1030E80002044A6802F0030202FA0EF22243026066
:1030F8004A6812F4403FC7D000220192234A546C18
:1031080044F480445464526C02F480420192019A5F
:103118009C08A51C1B4A52F8255003F0030E4FEAE1
:103128008E0E0F2202FA0EF225EA0205184A904284
:103138003FF474AF02F58062904216D002F58062C7
:10314800904214D002F58062904212D002F580625B
:10315800904210D002F5806290420ED002F5806253
:1031680090423FF459AF072259E7012257E702225C
:1031780055E7032253E7042251E705224FE702B03F
:1031880070BD704700380140003C014000380240E3
:10319800000002400369194201D001207047002055
:1031A80070470AB181617047090481617047000066
:1031B80082B0002100910B4B5A6C42F480425A6451
:1031C8005A6C02F480420092009A01911A6C42F003
:1031D80080521A641B6C03F080530193019B02B068
:1031E800704700BF0038024010B582B00023019339
:1031F800194B1A6C42F080521A641B6C03F080530E
:103208000193019B154B01221A64FFF709FD04463F
:10321800134B5B6813F4803F08D1FFF701FD001BD7
:10322800B0F57A7FF4D9032002B010BD0B4B012210
:103238005A64FFF7F5FC0446094B5B6813F4003F3A
:1032480007D1FFF7EDFC001BB0F57A7FF4D9032016
:10325800EAE70020E8E700BF0038024000000E421D
:1032680000700040002800F09B8070B50D460446B1
:103278004F4B1B6803F00F038B4208D2CBB24C4A6A
:103288001370136803F00F038B4240F08B802368A0
:1032980013F0020F17D013F0040F04D0454A9368B7
:1032A80043F4E0539360236813F0080F04D0414AB5
:1032B800936843F4604393603E4A936823F0F003B5
:1032C800A1680B439360236813F0010F32D0636841
:1032D800012B21D09A1E012A25D9364A126812F0EC
:1032E800020F61D033498A6822F0030213438B60CE
:1032F800FFF796FC06462F4B9B6803F00C036268A9
:10330800B3EB820F16D0FFF78BFC801B41F288339A
:103318009842F0D9032042E0264A126812F4003F8E
:10332800E0D101203BE0234A126812F0007FD9D196
:10333800012034E01E4B1B6803F00F03AB4207D992
:10334800EAB21B4B1A701B6803F00F03AB422DD176
:10335800236813F0040F06D0164A936823F4E05349
:10336800E1680B439360236813F0080F07D0114AF4
:10337800936823F46043216943EAC103936000F032
:1033880047F80C4B9B68C3F303130B4AD35CD84034
:103398000A4B18600A4B1868FFF7F6FB002070BD4F
:1033A800012070470120FAE70120F8E70120F6E73D
:1033B800003C024000380240805900087400002098
:1033C80070000020014B1868704700BF740000208F
:1033D80008B5FFF7F7FF044B9B68C3F38223034A42
:1033E800D35CD84008BD00BF0038024078590008B7
:1033F80008B5FFF7E7FF044B9B68C3F34233034A62
:10340800D35CD84008BD00BF003802407859000896
:1034180008B5604B9B6803F00C03082B06D00C2BF7
:103428005ED0042B40F0B4805B4833E0594B5A68B7
:1034380002F03F025B6813F4800F2CD0554B58689C
:10344800C0F388104FEA401CBCEB000C6EEB0E0E6C
:103458004FEA8E1343EA9C634FEA8C11B1EB0C01DF
:1034680063EB0E03DB0043EA5173C90011EB000C58
:1034780043F10003590200234FEA4C2041EADC5192
:10348800FDF75AFB434B5B68C3F3014301335B0011
:10349800B0FBF3F008BD3F4B5868C0F388104FEA03
:1034A800401CBCEB000C6EEB0E0E4FEA8E1343EA89
:1034B8009C634FEA8C11B1EB0C0163EB0E03DB004C
:1034C80043EA5173C90011EB000C43F10003990260
:1034D80000234FEA8C2041EA9C51FDF72DFBD1E7F0
:1034E8002C4B5A6802F03F025B6813F4800F2AD015
:1034F800284B5868C0F388104FEA401CBCEB000CFE
:103508006EEB0E0E4FEA8E1343EA9C634FEA8C1162
:10351800B1EB0C0163EB0E03DB0043EA5173C90006
:1035280011EB000C43F10003590200234FEA4C2031
:1035380041EADC51FDF700FB164B5B68C3F30273ED
:10354800B0FBF3F0A6E7134B5868C0F388104FEAB6
:10355800401CBCEB000C6EEB0E0E4FEA8E1343EAD8
:103568009C634FEA8C11B1EB0C0163EB0E03DB009B
:1035780043EA5173C90011EB000C43F100039902AF
:1035880000234FEA8C2041EA9C51FDF7D5FAD3E796
:1035980002487FE70038024000127A000024F40055
:1035A800002800F0018270B582B00446036813F069
:1035B800010F41D0994B9B6803F00C03042B32D0C8
:1035C800964B9B6803F00C03082B27D0934B9B6802
:1035D80003F00C030C2B59D06368B3F5803F5BD024
:1035E800B3F5A02F5ED08D4B1A6822F480321A6092
:1035F8001A6822F480221A606368002B5CD0FFF7F7
:103608000FFB0546854B1B6813F4003F14D1FFF7E9
:1036180007FB401B6428F5D90320CCE17F4B5B688E
:1036280013F4800FD2D07D4B1B6813F4003F03D0F6
:103638006368002B00F0BA81236813F0020F60D092
:10364800764B9B6813F00C0F4AD0744B9B6803F0C1
:103658000C03082B3FD0714B9B6803F00C030C2B19
:1036680069D0E368002B75D06D4B01221A60FFF713
:10367800D7FA0546694B1B6813F0020F61D1FFF7B3
:10368800CFFA401B0228F5D9032094E1634B5B680D
:1036980013F4800FA0D0C6E7604A136843F4803360
:1036A8001360A9E75D4B1A6842F480221A601A6811
:1036B80042F480321A609FE7FFF7B2FA0546574B8B
:1036C8001B6813F4003FB7D0FFF7AAFA401B642821
:1036D800F5D903206FE1514B5B6813F4800FBAD121
:1036E8004E4B1B6813F0020F03D0E368012B40F028
:1036F8005F814A4A136823F0F803216943EAC1034A
:103708001360236813F0080F49D06369002B33D086
:10371800434B0122C3F8802EFFF782FA05463F4B40
:103728005B6F13F0020F3AD1FFF77AFA401B0228B9
:10373800F5D903203FE1394B5B6813F4800F90D132
:10374800CEE7364A136823F0F803216943EAC10338
:103758001360D6E7324B00221A60FFF761FA05467C
:103768002E4B1B6813F0020FCBD0FFF759FA401B02
:103778000228F5D903201EE1294B0022C3F8802E28
:10378800FFF74EFA0546254B5B6F13F0020F06D084
:10379800FFF746FA401B0228F5D903200BE12368FE
:1037A80013F0040F76D01D4B1B6C13F0805F33D1E0
:1037B80000230193194B1A6C42F080521A641B6C57
:1037C80003F080530193019B0125164B1B6813F4EA
:1037D800807F29D0A368012B3AD0052B3ED00F4B10
:1037E8001A6F22F001021A671A6F22F004021A6790
:1037F800A368002B3CD0FFF713FA0646074B1B6F54
:1038080013F0020F45D1FFF70BFA801B41F2883302
:103818009842F3D90320CEE00025D6E700380240CD
:1038280000004742007000406B4A136843F48073FD
:103838001360FFF7F5F90646674B1B6813F4807FA2
:10384800C8D1FFF7EDF9801B0228F5D90320B2E0B3
:10385800624A136F43F001031367C9E75F4B1A6F9E
:1038680042F004021A671A6F42F001021A67BFE7B2
:10387800FFF7D6F90646594B1B6F13F0020F08D015
:10388800FFF7CEF9801B41F288339842F3D9032021
:1038980091E0EDB9A369002B00F08C804F4A926843
:1038A80002F00C02082A54D0022B17D04C4B0022ED
:1038B8001A66FFF7B5F90446484B1B6813F0007FFA
:1038C80045D0FFF7ADF9001B0228F5D9032072E0B7
:1038D800424A136C23F080531364DBE7404B002209
:1038E8001A66FFF79DF905463C4B1B6813F0007FED
:1038F80006D0FFF795F9401B0228F5D903205AE0B6
:10390800E369226A1343626A43EA8213A26A52088D
:10391800013A43EA0243E26A43EA0263226B43EA5A
:1039280002732E4A53602E4B01221A66FFF778F96C
:1039380004462A4B1B6813F0007F06D1FFF770F985
:10394800001B0228F5D9032035E0002033E00020D1
:1039580031E0012B31D0214B5B6803F48001E2692F
:1039680091422CD103F03F02216A8A4229D1616A2F
:1039780047F6C0721A40B2EB811F24D103F44031DC
:10398800A26A5208013AB1EB024F1ED103F07062ED
:10399800E16AB2EB016F1AD103F0E043226BB3EB9B
:1039A800027F16D1002006E001207047012002E0C6
:1039B800012000E0002002B070BD0120FBE70120DB
:1039C800F9E70120F7E70120F5E70120F3E70120F7
:1039D800F1E70120EFE700BF007000400038024027
:1039E800000047422DE9F04782B005468846174651
:1039F8001E46FFF715F90A9B1B1A03EB0609FFF78A
:103A08000FF98246284B1B68C3F3CB3309FB03F33A
:103A180001932B689C6838EA04040CBF0123002337
:103A2800BB423DD0B6F1FF3FF3D0FFF7F9F8A0EB6A
:103A38000A00484507D2019A02B14A46019B013B58
:103A480001939146E5E72A68536823F0E003536041
:103A58006B68B3F5827F0BD0AB6AB3F5005F14D007
:103A6800012385F85130002385F85030032018E0F1
:103A7800AB68B3F5004F02D0B3F5806FECD12A687C
:103A8800136823F040031360E6E72A68136823F4F9
:103A9800005313602A68136843F400531360DFE788
:103AA800002002B0BDE8F0877400002070B584B033
:103AB80004460D46164600920B4601220221FFF7E6
:103AC80091FFD0B9174B1B68174AA2FB03235B0D64
:103AD8004FF47A7202FB03F303936368B3F5827FB2
:103AE80011D0039B3BB1039B013B039323689B6865
:103AF80013F0800FF5D104B070BD636D43F020035F
:103B080063650320F7E700962B46002280212046B4
:103B1800FFF768FF0028EED0636D43F0200363656C
:103B28000320E8E774000020819F5E1610B582B07C
:103B380004460B464168B1F5827F14D06168B1F53F
:103B4800827F2AD1A168B1F5806F19D00092002236
:103B580080212046FFF746FF30B3636D43F0200312
:103B68006365032020E08168B1F5004F02D0B1F50C
:103B7800806FE3D12068016821F040010160DDE732
:103B88000092002201212046FFF72CFF60B1636DEF
:103B980043F020036365032006E000920022012120
:103BA8002046FFF71FFF08B902B010BD636D43F050
:103BB800200363650320F7E700285AD010B50446B0
:103BC800436A33B94368B3F5827F05D00023C361E4
:103BD80002E00023036143610023A36294F851309B
:103BE800002B40D0022384F851302268136823F058
:103BF80040031360636803F48273A26802F404420A
:103C08001343E26802F400621343226902F00202DD
:103C18001343626902F001021343A26902F40072BD
:103C28001343E26902F038021343226A02F0800269
:103C38001343A26A02F40052216813430B60638B9A
:103C480003F00403626A02F01002216813434B6018
:103C58002268D36923F40063D361002060650123DF
:103C680084F8513010BD84F850302046FEF77CFEB1
:103C7800B8E7012070472DE9F04383B00446894630
:103C880090461D46FEF7CCFF94F85130012B40F0CA
:103C9800CD800646DFB2B9F1000F00F0C880B8F158
:103CA800000F00F0C48094F85030012B00F0C3805E
:103CB800012384F85030032384F8513000236365CE
:103CC800C4F83090A4F83480A4F83680A363A3879E
:103CD800E38763642364A368B3F5004F1ED02368A9
:103CE8001A6812F0400F03D11A6842F040021A60B5
:103CF800E368B3F5006F1CD0636813B1B8F1010F26
:103D08005FD1226B236812781A73236B0133236304
:103D1800E38E9BB2013B9BB2E38652E022681368B4
:103D280023F0400313602268136843F48043136050
:103D3800D5E7636813B1B8F1010F15D1226B236879
:103D48001288DA60236B02332363E38E9BB2013B54
:103D58009BB2E38608E0FEF763FF801BA84202D30C
:103D6800B5F1FF3F15D1A5B1E38E9BB2002B42D030
:103D780023689A6812F0020FEDD0226B1288DA607D
:103D8800236B02332363E38E9BB2013B9BB2E38632
:103D9800EAE7012384F85130002384F850300327E0
:103DA80045E0226B12781A73236B01332363B4F84E
:103DB80036C01FFA8CFC0CF1FF3C1FFA8CFCA4F8EF
:103DC80036C0E38E9BB2B3B123689A6812F0020F33
:103DD800E7D1FEF725FF801BA84202D3B5F1FF3FCC
:103DE80001D1002DEDD1012384F85130002384F84E
:103DF800503003271BE0324629462046FFF756FE7F
:103E080008B120236365A36833B901932368DA688E
:103E180001929B680193019B012384F85130002390
:103E280084F85030636D13B9002700E00227384644
:103E380003B0BDE8F0830227F9E72DE9F04383B02A
:103E48000446884691461F460A9DFEF7E9FE064647
:103E580094F851306268012B0BD0D9B2B2F5827F49
:103E680040F00481A368002B40F00481042940F04D
:103E78000381B8F1000F00F00181B9F1000F00F0E3
:103E8800FF80002F00F0FE8094F85030012B00F0E6
:103E9800FB80012384F8503094F85130042B02D071
:103EA800052384F8513000236365C4F83890E78708
:103EB800A787C4F83080E786A786236463642368ED
:103EC8001A6812F0400F03D11A6842F040021A60D3
:103ED800E368B3F5006F11D063680BB1012F0BD104
:103EE800226B236812781A73236B01332363E38EE2
:103EF8009BB2013B9BB2E386012771E063680BB17B
:103F0800012F0BD1226B23681288DA60236B0233EE
:103F18002363E38E9BB2013B9BB2E38601271BE040
:103F280023689A6812F0010F0ED0E28F92B25AB14C
:103F3800DA68A36B1A80A36B0233A363E38F9BB287
:103F4800013B9BB2E3870127FEF76AFE801BA8426C
:103F580002D3B5F1FF3F1ED1E38E9BB21BB9E38FAD
:103F68009BB2002B62D023689A6812F0020FD7D058
:103F7800E28E92B2002AD3D0002FD1D0226B1288C1
:103F8800DA60236B02332363E38E9BB2013B9BB25F
:103F9800E3860027C4E7012384F85130002384F81E
:103FA8005030032063E023689A6812F0010F0ED0A6
:103FB800E28F92B25AB1DA68A36B1A70A36B01331D
:103FC800A363E38F9BB2013B9BB2E3870127FEF714
:103FD80027FE831BAB4202D3B5F1FF3F1ED1EDB1E3
:103FE800E38E9BB213B9E38F9BB2FBB123689A6847
:103FF80012F0020FD7D0E28E92B2002AD3D0002F4F
:10400800D1D0226B12781A73236B01332363E38EAA
:104018009BB2013B9BB2E3860027C4E7012384F8E7
:104028005130002384F85030032020E032462946DE
:104038002046FFF73BFD90B9A36833B90193236885
:10404800DA6801929B680193019B012384F851303F
:10405800002384F85030636D4BB1012007E0202322
:104068006365002384F85030012000E0022003B08B
:10407800BDE8F0830220FAE70220F8E70120F6E71E
:104088000120F4E70120F2E70220F0E72DE9F043F0
:1040980083B01D4690F85130012B40F0B48004469F
:1040A80089469046DFB24368B3F5827F01D18368C1
:1040B80093B3FEF7B5FD0646B9F1000F00F0A480F2
:1040C800B8F1000F00F0A08094F85030012B00F0F8
:1040D8009F80012384F85030042384F85130002352
:1040E8006365C4F83890A4F83C80A4F83E80236344
:1040F800A386E38623646364A368B3F5004F15D0F1
:1041080023681A6812F0400F03D11A6842F040027F
:104118001A60E368F3B143E0042380F85130009556
:1041280013460A46FFF789FE07466DE022681368C2
:1041380023F0400313602268136823F4804313605C
:10414800DEE7FEF76DFD801BA84202D3B5F1FF3F05
:1041580015D1A5B1E38F9BB2002B42D023689A6892
:1041680012F0010FEDD0A26B1B7B1370A36B013310
:10417800A363E38F9BB2013B9BB2E387EAE701238A
:1041880084F85130002384F8503003273CE0FEF7D0
:1041980047FD801BA84202D3B5F1FF3F19D1C5B135
:1041A800E38F9BB2EBB123689A6812F0010FEED04F
:1041B800DA68A36B1A80A36B0233A363B4F83EC01A
:1041C8001FFA8CFC0CF1FF3C1FFA8CFCA4F83EC0D3
:1041D800E6E7012384F85130002384F850300327A0
:1041E80012E0324629462046FFF7A0FC08B12023FA
:1041F8006365012384F85130002384F85030636DDF
:1042080013B9002700E00227384603B0BDE8F08361
:104218000227F9E730B4036A026A22F00102026257
:104228004268846924F0730C0C6844EA0C0423F097
:10423800020C8B6843EA0C03114DA84203D005F524
:104248008065A84205D123F00803CD682B4323F0ED
:1042580004030B4DA84203D005F58065A84207D199
:1042680022F440724D6945EA020C8A6942EA0C025E
:10427800426084614A684263036230BC704700BF91
:104288000000014030B4036A026A22F480720262BC
:104298004268C46924F0730C0C6844EA0C0523F4E2
:1042A80000738C6843EA0423114CA04203D004F540
:1042B8008064A04206D123F40063CC6843EA042357
:1042C80023F480630A4CA04203D004F58064A04222
:1042D80007D122F440524C6942EA04128C6942EA3E
:1042E80004124260C5614A68C263036230BC704709
:1042F8000000014030B4036A026A22F4805202626C
:104308004468C26922F4E6420D6842EA052223F4B1
:1043180000538D6843EA0533094DA84203D005F5DB
:104328008065A84204D124F480444D6944EA851488
:104338004460C2614A680264036230BC704700BFCF
:104348000000014010B4036A046A24F00104046206
:10435800846924F0F00C4CEA021223F00A030B43A0
:10436800826103625DF8044B704710B4036A046A03
:1043780024F010040462846924F4704C4CEA02327C
:1043880023F0A00343EA0113826103625DF8044B42
:104398007047836823F070030B4343F0070383607F
:1043A800704770477047704770477047704770B5DF
:1043B80004460368DE681D6915F0020F10D016F078
:1043C800020F0DD06FF002021A6101230377036810
:1043D8009B6913F0030F5ED0FFF7E6FF00232377F6
:1043E80015F0040F12D016F0040F0FD023686FF0E9
:1043F80004021A610223237723689B6913F4407F20
:104408004FD02046FFF7D0FF0023237715F0080F81
:1044180012D016F0080F0FD023686FF008021A6147
:10442800042323772368DB6913F0030F40D0204669
:10443800FFF7BAFF0023237715F0100F12D016F0FC
:10444800100F0FD023686FF010021A61082323772A
:104458002368DB6913F4407F31D02046FFF7A4FFBF
:104468000023237715F0010F02D016F0010F2DD18C
:1044780015F0800F02D016F0800F2FD115F0400FE5
:1044880002D016F0400F31D115F0200F02D016F0EF
:10449800200F33D170BDFFF786FF2046FFF785FF59
:1044A8009CE72046FFF77FFF2046FFF77EFFABE73C
:1044B8002046FFF778FF2046FFF777FFBAE7204648
:1044C800FFF771FF2046FFF770FFC9E723686FF019
:1044D80001021A612046FFF765FFC9E723686FF0FC
:1044E80080021A61204600F014FBC7E723686FF0CA
:1044F80040021A612046FFF759FFC5E723686FF0AD
:1045080020021A61204600F003FBC3E70368344A1F
:10451800904212D0B0F1804F0FD0A2F57C42904269
:104528000BD002F58062904207D002F5806290427B
:1045380003D002F57842904203D123F070034A6811
:104548001343274A90422AD0B0F1804F27D0A2F5D2
:104558007C42904223D002F5806290421FD002F53F
:10456800806290421BD002F57842904217D002F543
:104578007052904213D002F5806290420FD002F53B
:10458800806290420BD0A2F59832904207D002F593
:104598008062904203D002F58062904203D123F4F6
:1045A8004073CA68134323F080034A6913430360C6
:1045B8008B68C3620B688362094B984203D003F58A
:1045C8008063984201D10B69036301234361036946
:1045D80013F0010F03D0036923F00103036170474F
:1045E8000000014040B310B5044690F83D30F3B1E7
:1045F800022384F83D30214651F8040BFFF786FF6B
:10460800012384F8463084F83E3084F83F3084F83B
:10461800403084F8413084F8423084F8433084F8DC
:10462800443084F8453084F83D30002010BD80F8CF
:104638003C3000F0C5FBDBE70120704740B310B504
:10464800044690F83D30F3B1022384F83D3021460A
:1046580051F8040BFFF75AFF012384F8463084F819
:104668003E3084F83F3084F8403084F8413084F894
:10467800423084F8433084F8443084F8453084F874
:104688003D30002010BD80F83C30FFF78AFEDBE7A4
:104698000120704730B4036A026A22F010020262F5
:1046A8004468826922F4E6420D6842EA052223F052
:1046B80020038D6843EA0513114DA84203D005F580
:1046C8008065A84206D123F08003CD6843EA05132C
:1046D80023F040030A4DA84203D005F58065A8429F
:1046E80007D124F440644D6944EA85048D6944EA9D
:1046F8008504446082614A688263036230BC704703
:104708000000014038B590F83C30012B66D00446D3
:104718000D46012380F83C300C2A5AD8DFE802F015
:10472800075959591B595959305959594400006862
:10473800FFF770FD2268936943F0080393612268CC
:10474800936923F0040393612268936929690B43F1
:10475800936100203EE00068FFF79CFF22689369A0
:1047680043F4006393612268936923F4806393613F
:1047780022689369296943EA01239361002029E0AB
:104788000068FFF77FFD2268D36943F00803D3610F
:104798002268D36923F00403D3612268D3692969A5
:1047A8000B43D361002015E00068FFF7A3FD2268E2
:1047B800D36943F40063D3612268D36923F4806327
:1047C800D3612268D369296943EA0123D3610020B0
:1047D80000E00120002384F83C3038BD0220FCE7CB
:1047E80010B4846824F47F4C42EA03220A4342EA64
:1047F8000C0282605DF8044B704790F83C30012B46
:1048080078D010B50446012380F83C30022380F8A4
:104818003D300268936823F47F4323F07703936065
:104828000B68602B4CD023D8402B54D011D8202BA8
:1048380003D00AD80BB1102B05D119462068FFF711
:10484800A8FD002028E0012026E0302BF5D001202B
:1048580022E0502B0AD1CA6849680068FFF772FD48
:1048680050212068FFF795FD002015E0012013E096
:10487800B3F5805F3AD0B3F5005F14D0702B37D111
:10488800CB684A6889680068FFF7AAFF22689368BE
:1048980043F0770393600020012384F83D30002320
:1048A80084F83C3010BDCB684A6889680068FFF717
:1048B80097FF2268936843F4804393600020EBE7F6
:1048C800CA6849680068FFF750FD60212068FFF753
:1048D80060FD0020E0E7CA6849680068FFF732FD1C
:1048E80040212068FFF755FD0020D5E70020D3E7D9
:1048F8000120D1E70220704701F01F014FF0010CA1
:104908000CFA01FC036A23EA0C030362036A8A4077
:10491800134303627047000010B504460846002997
:1049280047D194F83E30013B18BF0123002B40F0DB
:10493800A080002853D1022384F83E302268D3682F
:1049480043F00203D360012201462068FFF7D4FF39
:1049580023684B4A934203D002F58062934203D105
:104968005A6C42F400425A642368454A934275D00F
:10497800B3F1804F72D0A2F57C4293426ED002F51B
:10498800806293426AD002F58062934266D002F553
:104998007842934262D002F5705293425ED0A2F5FB
:1049A800943293425AD01A6842F001021A600020E9
:1049B8005EE0042907D008290BD094F84130013B68
:1049C80018BF0123B2E794F83F30013B18BF012319
:1049D800ACE794F84030013B18BF0123A6E7042850
:1049E80024D008282BD0022384F841300C2842D840
:1049F80001A353F820F000BF454900087F4A00088A
:104A08007F4A00087F4A00083B4A00087F4A00089E
:104A18007F4A00087F4A00084D4A00087F4A00087C
:104A28007F4A00087F4A0008594A0008022384F890
:104A38003F302268D36843F00403D36083E702233E
:104A480084F840302268D36843F00803D3607AE7DB
:104A58002268D36843F01003D36074E79A6802F0C1
:104A68000702062A09D01A6842F001021A600020DB
:104A780010BD0120FCE70120FAE70020F8E700BF9D
:104A88000000014090F83C20012A3DD010B40346B4
:104A9800012280F83C20022280F83D2002685068FC
:104AA800946820F0700C086840EA0C0050601A689E
:104AB800164882421AD0B2F1804F17D0A0F57C4038
:104AC800824213D000F5806082420FD000F58060EA
:104AD80082420BD000F57840824207D000F5705032
:104AE800824203D0A0F59430824204D124F080049D
:104AF800496821439160012283F83D20002083F812
:104B08003C005DF8044B70470220704700000140EC
:104B18007047704710B504460268136923F4405380
:104B2800C1680B431361836802691A4343691A43D6
:104B3800C3691A430168CB6823F4164323F00C03B6
:104B48001343CB600268536923F4407381690B43B4
:104B580053610368314A934206D002F5806293425A
:104B680002D0FEF735FC01E0FEF742FCE369B3F53D
:104B7800004F29D00021031849411B1841F10001B9
:104B8800C90041EA5371DB00181863684FEA8302D1
:104B98004FEA937341F10001FBF7CEFF204AA2FBD5
:104BA80000314909642303FB11031B013233A2FBC3
:104BB80003235B0903F0F00202EB011203F00F0379
:104BC800216813448B6010BD0023021843EB0301D6
:104BD800121841F10001C90041EA5271D2001018BF
:104BE80041F10001626892185B41FBF7A5FF0C4A8E
:104BF800A2FB00314909642303FB1103DB003233B4
:104C0800A2FB03235B095A0002F4F87202EB0112BB
:104C180003F00703216813448B60D4E700100140B8
:104C28001F85EB5160B310B5044690F8413013B3BB
:104C3800242384F841302268D36823F40053D360D6
:104C48002046FFF767FF2268136923F49043136136
:104C58002268536923F02A0353612268D36843F416
:104C68000053D36000206064202384F8413084F826
:104C78004230606310BD80F8403000F09DF9D7E7FE
:104C880001207047FEE7FEE7FEE7FEE7FEE7704714
:104C98007047704708B5FDF7B7FF08BD08B502486B
:104CA800FFF785FB08BD00BF3804002008B502489F
:104CB800FFF77DFB08BD00BFF003002008B50248E0
:104CC800FFF775FB08BD00BFC804002008B50248FF
:104CD800FFF76DFB08BD00BF80040020034AD2F82F
:104CE800883043F47003C2F88830704700ED00E064
:104CF80000B583B00023009301930F480F4A026068
:104D080042F227324260836042F20F72C2608361CE
:104D1800FFF768FC50B900230093019369460648E1
:104D2800FFF7B0FE28B903B05DF804FBFDF7B2FC4D
:104D3800F1E7FDF7AFFCF6E7C804002000100040DB
:104D480000B583B00023009301930F480F4A026017
:104D580042F227324260836040F2F312C2608361FC
:104D6800FFF740FC50B900230093019369460648B9
:104D7800FFF788FE28B903B05DF804FBFDF78AFC4D
:104D8800F1E7FDF787FCF6E78004002000140040F7
:104D980008B50948094B036042F2273343600023F2
:104DA80083606322C26003618361FFF71BFC00B963
:104DB80008BDFDF76FFCFBE7F0030020001C004076
:104DC80000B585B003682F4A93420BD02E4A934210
:104DD8001CD02E4A93422DD02D4A93423ED005B086
:104DE8005DF804FB002100912A4B1A6C42F0100276
:104DF8001A641B6C03F010030093009B0A463620CC
:104E0800FEF7B0F83620FEF7BDF8E8E7002101917B
:104E1800204B1A6C42F020021A641B6C03F020032A
:104E28000193019B0A463720FEF79CF83720FEF7CE
:104E3800A9F8D4E700210291164B1A6C42F04002FF
:104E48001A641B6C03F040030293029B0A462B2052
:104E5800FEF788F82B20FEF795F8C0E700210391AC
:104E68000C4B1A6C42F080021A641B6C03F080032E
:104E78000393039B0A462C20FEF774F82C20FEF7B8
:104E880081F8ACE700100040001400400018004012
:104E9800001C00400038024000B587B00023019391
:104EA800029303930493059302680F4B9A4202D02E
:104EB80007B05DF804FB002300930C4B1A6B42F01B
:104EC80002021A631B6B03F002030093009B4FF46A
:104ED80080430193022302930923059301A90448FF
:104EE800FEF768F8E4E700BF001800400038024009
:104EF8000004024000B58DB00023089309930A937B
:104F08000B930193029303930493059306930793DA
:104F18001A481B4A02605922426083602722C260F5
:104F280003618361FFF75EFBE0B94FF48053089398
:104F380008A91248FFF761FCB8B91048FFF77EFBD3
:104F4800B0B960230193002202920392059201A94D
:104F58000A48FFF7D7FB70B90848FFF79DFF0DB067
:104F68005DF804FBFDF796FBDFE7FDF793FBE4E74D
:104F7800FDF790FBE5E7FDF78DFBEDE73804002032
:104F88000018004008B50A480A4B03604FF4E133A3
:104F9800436000238360C36003610C224261836124
:104FA800C361FFF73FFE00B908BDFDF773FBFBE7E0
:104FB800100500200044004000B589B00023039389
:104FC80004930593069307930268154B9A4202D0FF
:104FD80009B05DF804FB0021019103F5FA331A6C5E
:104FE80042F400321A641A6C02F400320192019AF7
:104FF80002911A6B42F001021A631B6B03F0010362
:105008000293029B0C230393022304930323069326
:105018000723079303A90348FDF7CCFFD8E700BF90
:10502800004400400000024079B100B584468E4635
:105038000088012301E00133DBB2734507D23CF855
:1050480013208242F7D91046F5E7002070475DF833
:1050580004FB79B100B584468E460088012301E03F
:105068000133DBB2734507D23CF813208242F7D2F2
:105078001046F5E7002070475DF804FB8C4669B1DF
:1050880000231A4604E030F813100A440133DBB257
:105098006345F8D3B2FBFCF080B27047002070473C
:1050A80081B100B584468E46B0F90000012301E0C5
:1050B8000133DBB2734507D23CF913208242F7DD96
:1050C8001046F5E7002070475DF804FB81B100B594
:1050D80084468E46B0F90000012301E00133DBB2BB
:1050E800734507D23CF913208242F7DA1046F5E7F8
:1050F800002070475DF804FB8C4669B100231A460E
:1051080004E030F913100A440133DBB26345F8D3E5
:1051180092FBFCF000B270470020704738B5044697
:105128000D46FDF77DFD411BA14201D9012038BD87
:105138000020FCE7DFF834D0FFF7D0FD0C480D491C
:105148000D4A002302E0D458C4500433C4188C42DA
:10515800F9D30A4A0A4C002301E013600432A24240
:10516800FBD300F01FF8FDF7F1FA704700000220AA
:1051780000000020C8000020A4590008C800002032
:1051880090060020FEE702440346934200D1704790
:1051980003F8011BF9E70000014B1868704700BFCE
:1051A8007800002070B50D4B0D4D5B1B9C10002640
:1051B800A64209D100F0C0FB0A4D0B4B5B1B9C10AB
:1051C8000026A64205D170BD55F8043B9847013624
:1051D800EEE755F8043B98470136F2E79C5900087A
:1051E8009C5900089C590008A059000800000000BC
:1051F80038B52DED028B55EC104B00F045F82246E2
:105208002B4620462946B0EE408AF0EE608AFBF72E
:105218002DFC98B90022002320462946FBF71CFCE8
:1052280060B90022002320462946FBF7EDFB60B158
:10523800FFF7B2FF9FED0C8B22230360B0EE480A04
:10524800F0EE680ABDEC028B38BDFFF7A5FFBDEC98
:10525800028B034621221A600548BDE8384000F059
:105268000BB800BFAFF30080000000000000F0FFA3
:1052780090590008000000009FED010B704700BF27
:10528800000000000000F87F2DE9F04F51EC100BF2
:10529800B1F5801F87B00D4680F2828021F000436F
:1052A8000343024600F022810029C0F26981DA4BEB
:1052B8000022FBF741F9D94B0D469D426FF03502AC
:1052C80073DC2C15C5F3130505F51523A4F2FF347B
:1052D80003F66473144403F4801304EB135483F04B
:1052E8007F5383F4401343EA05010022CC4BFAF7BD
:1052F8006BFFAB1CC3F31303022B82468B464FF0A4
:1053080000025BDC0023FBF77FFB002840F0F980FC
:10531800ADA3D3E9002350465946FBF70DF90246E1
:105328000B460020BF49FAF74FFF524606460F4684
:105338005B4650465946FBF7FFF802460B46304697
:105348003946FBF7F9F806460F46002C00F00D81A8
:105358002046FBF787F89EA3D3E9002380468946B9
:10536800FBF7EAF89CA3D3E9002304460D46404620
:105378004946FBF7E1F802460B4630463946FAF74C
:1053880023FF52465B46FAF71FFF02460B462046AC
:105398002946FAF719FF41EC100B07B0BDE8F08F6A
:1053A8009E4B9D424FF000028BDD02460B46FAF7FA
:1053B8000DFF41EC100B07B0BDE8F08F4FF08043B4
:1053C800FAF704FF02460B4650465946FBF7DEF94A
:1053D800064620460F46FBF745F83246CDE904015C
:1053E8003B4630463946CDE90267FBF7A5F8024649
:1053F8000B46CDE90023FBF79FF879A3D3E90023F7
:1054080006460F46FBF798F877A3D3E90023FAF787
:10541800DDFE32463B46FBF78FF875A3D3E9002340
:10542800FAF7D4FE32463B46FBF786F872A3D3E977
:105438000023FAF7CBFEDDE90023FBF77DF870A324
:10544800D3E90023CDE9000130463946FBF774F86B
:105458006DA3D3E90023FAF7B9FE32463B46FBF7C2
:105468006BF86BA3D3E90023FAF7B0FE32463B464C
:10547800FBF762F8A5F5C22802460B46C5F5D72505
:10548800DDE90001FAF7A2FEA8F27A48513545EAAB
:105498000805002D06460F4652DD624B0022504695
:1054A8005946FBF749F852465B46FBF745F88046F4
:1054B80089463046394642464B46FAF787FEDDE9CB
:1054C8000223FBF739F806460F46002C62D1024644
:1054D8000B4640464946FAF777FE02460B465046C9
:1054E8005946FAF771FE41EC100B64E700220023DD
:1054F8004D490020FBF74AF941EC100B07B0BDE815
:10550800F08F002C00F092802046FAF7ABFF30A312
:10551800D3E9002306460F46FBF70EF82EA3D3E97E
:10552800002304460D4630463946FBF705F8024687
:105538000B4620462946FAF749FE41EC100B3AE79C
:1055480002460B4650465946FAF73EFEDDE902236D
:10555800FAF7F2FF06460F463CB1DDE904891CA3C1
:10556800D3E9002340464946FAE632463B465046D0
:105578005946FAF729FE41EC100B07B0BDE8F08F49
:105588000B46FAF721FE00220023FBF7FFF841EC57
:10559800100B10E70EA3D3E90023DDE90401FAF7A5
:1055A800CBFF0DA3D3E9002304460D46DDE9040132
:1055B800FAF7C2FF32463B46FAF708FE02460B46A8
:1055C80040464946DBE600BF555555555555D53F2C
:1055D8000000E0FE422EE63F763C7935EF39EA3DA1
:1055E80044523EDF12F1C23FDE03CB966446C73F0A
:1055F800599322942449D23F935555555555E53F23
:105608009FC678D0099AC33FAF788E1DC571CC3F2D
:1056180004FA97999999D93F00005043FFFFEF7F0B
:105628000000F03F0000E03F000050C39FED020B78
:10563800C1E600BFAFF300800000000000000000DA
:105648002DE9F047089D0F4604468C46002B48D1AB
:105658008A42164661D9B2FA82F34BB1C3F12002ED
:1056680001FA03FC20FA02F29E4042EA0C0C9C402C
:105678004FEA164EB7B2BCFBFEF1220C0EFB11CC62
:1056880042EA0C4201FB07F0904209D9B21801F135
:10569800FF3C80F0EE80904240F2EB8002393244C9
:1056A800121AA4B2B2FBFEF00EFB102244EA024426
:1056B80000FB07F7A74209D9341900F1FF3280F03F
:1056C800DA80A74240F2D7803444023840EA0140E9
:1056D800E41B00211DB1DC400023C5E90043BDE8FF
:1056E800F0878B4206D90DB1C5E9000100210846B3
:1056F800BDE8F087B3FA83F1002948D1BB4202D351
:10570800824200F20781841A67EB03020120944663
:10571800002DE4D0C5E9004CE1E7002A00F09280B2
:10572800B2FA82F3002B40F0A8808A1A4FEA164E8C
:105738001FFA86FC0121200CB2FBFEF70EFB172294
:1057480040EA02420CFB07F0904207D9B21807F171
:10575800FF3802D2904200F2E2804746121AA4B201
:10576800B2FBFEF00EFB102244EA02440CFB00FCE4
:10577800A44507D9341900F1FF3202D2A44500F23A
:10578800CB801046A4EB0C0440EA0740A2E7C1F125
:1057980020068B4022FA06FC4CEA030C07FA01F4B7
:1057A80020FA06F3F7404FEA1C49234300FA01F8B0
:1057B8001FFA8CFEB7FBF9F01C0C09FB107744EAC2
:1057C800074400FB0EF7A74202FA01F20AD91CEBC4
:1057D800040400F1FF3A80F09B80A74240F29880D1
:1057E80002386444E41B9FB2B4FBF9F309FB134489
:1057F80047EA044403FB0EFEA64509D91CEB040442
:1058080003F1FF3780F08280A6457FD9023B6444CC
:1058180043EA0040A4EB0E04A0FB02E7BC42734637
:10582800B94663D360D05DB1B8EB030264EB0904F9
:1058380004FA06F622FA01F31E43CC40C5E90064D7
:1058480000214CE76208480842EAC1710B0C43EAA0
:1058580000438AB242EA0342B3FBF6F1E407B446D6
:105868003746B6461F23B0FBF6F0D21B41EA00418B
:1058780061E7614614E7104628E7C3F1200120FAE2
:1058880001F29E4027FA01F19F403A434FEA164E33
:105898001FFA86FCB1FBFEF70EFB1710110C41EA4C
:1058A800004107FB0CF8884504FA03F43AD971184B
:1058B80007F1FF3001D288451FD8A1EB0801B1FBE1
:1058C800FEF808FB0CF70EFB181192B242EA0142EF
:1058D800BA422FD2B21808F1FF31C6D2BA42C4D2A6
:1058E800A8F102013244C0E7F0459CD2BEEB0203A6
:1058F80067EB0C070138B94695E7A6EB0808414461
:10590800B81EB1FBFEF808FB0CF7DCE73B467FE767
:10591800504667E70846FBE63444023832E7023F60
:1059280032441BE7A1EB08013846B1FBFEF808FB3F
:105938000CF7C8E7414698E7F8B500BFF8BC08BCC3
:105948009E467047F8B500BFF8BC08BC9E46704735
:105958005555555555000000852A0008D92A0008D4
:10596800392B00085D2B0008812B0008892B0008C3
:105978000000000001020304000000000000000015
:0C598800010203040607080900000000EB
:08599400B4FCFF7F01000000DC
:04599C00990B00085B
:0459A000750B00087B
:1059A4000019322B3D240F16233A11081E072C35FB
:1059B4001F062D34223B10093C250E170118332AEB
:1059C4003E270C15031A31281D042F362039120BDB
:1059D4002138130A1C052E37021B30293F260D14CB
:1059E4000100000001000200040008004000000063
:1059F40001000200040008001000200040008000A4
:105A04000001000200040008001000200100000052
:105A1400100000000024F4007C00002000000000BE
:105A240058050020C00500202806002000000000C2
:105A34000000000000000000000000000000000062
:105A44000000000000000000000000000000000052
:105A54000000000000000000000000000000000042
:085A640000000000000000003A
:040000050800513D61
:00000001FF
